{
    "txid": "ac423c92d464cb5dbd565580fec32eb96b40a36441cc74cf3f27a4ae8dba2020",
    "version": 2,
    "type": 0,
    "size": 85,
    "locktime": 0,
    "vin": [
        {
            "txid": "5897de6bd6027a475eadd57019d4e6872c396d0716c4875a5f1a6fcfdf385c1f",
            "vout": 0,
            "scriptSig": {
                "asm": "",
                "hex": ""
            },
            "sequence": 4294967293
        }
    ],
    "vout": [
        {
            "value": 0.18000000,
            "valueSat": 18000000,
            "n": 0,
            "scriptPubKey": {
                "asm": "OP_DUP OP_HASH160 9fab4879fc8317e383431a47cfee3d2c5fb03e31 OP_EQUALVERIFY OP_CHECKSIG",
                "hex": "76a9149fab4879fc8317e383431a47cfee3d2c5fb03e3188ac",
                "reqSigs": 1,
                "type": "pubkeyhash",
                "addresses": [
                    "GYQB3b2EhTHQcPT4SmnFmE8Jmc1a7uTNg1"
                ]
            }
        }
    ],
    "hex": "02000000011f5c38dfcf6f1a5f5a87c416076d392c87e6d41970d5ad5e477a02d66bde97580000000000fdffffff0180a81201000000001976a9149fab4879fc8317e383431a47cfee3d2c5fb03e3188ac00000000"
}
