{
    "txid": "b2b28d88dcd1348acd7a84ed0a64d64bf72993ddf1a6baba4ef0bf6526be469f",
    "version": 1,
    "type": 0,
    "size": 223,
    "locktime": 0,
    "vin": [
        {
            "txid": "4d49a71ec9da436f71ec4ee231d04f292a29cd316f598bb7068feccabdc59485",
            "vout": 0,
            "scriptSig": {
                "asm": "3044022005d0a8d375b2e51bf9967571f5eb77a65a7ad36bbeeaea750f7c3613d120056902204a2610f8cf5b5f260c7343c7107b206c67477ebe16be4ed654a9247e6aa7cd97[ALL] 044058ee5d8905eb372ffa66aa9d63d640914462186692674cbb8a353642ce572ddc6304776e271fdc748b90b092f07efa66fba14942a9551f30eceed6f4e16026",
                "hex": "473044022005d0a8d375b2e51bf9967571f5eb77a65a7ad36bbeeaea750f7c3613d120056902204a2610f8cf5b5f260c7343c7107b206c67477ebe16be4ed654a9247e6aa7cd970141044058ee5d8905eb372ffa66aa9d63d640914462186692674cbb8a353642ce572ddc6304776e271fdc748b90b092f07efa66fba14942a9551f30eceed6f4e16026"
            },
            "sequence": 4294967295
        }
    ],
    "vout": [
        {
            "value": 0.00100000,
            "valueSat": 100000,
            "n": 0,
            "scriptPubKey": {
                "asm": "OP_DUP OP_HASH160 6a264665df75f824139904bf74203687c91b729f OP_EQUALVERIFY OP_CHECKSIG",
                "hex": "76a9146a264665df75f824139904bf74203687c91b729f88ac",
                "reqSigs": 1,
                "type": "pubkeyhash",
                "addresses": [
                    "GTXBtrVsZgme3LqCG2BtFf2wjdHrcTM6Sq"
                ]
            }
        }
    ],
    "hex": "01000000018594c5bdcaec8f06b78b596f31cd292a294fd031e24eec716f43dac91ea7494d000000008a473044022005d0a8d375b2e51bf9967571f5eb77a65a7ad36bbeeaea750f7c3613d120056902204a2610f8cf5b5f260c7343c7107b206c67477ebe16be4ed654a9247e6aa7cd970141044058ee5d8905eb372ffa66aa9d63d640914462186692674cbb8a353642ce572ddc6304776e271fdc748b90b092f07efa66fba14942a9551f30eceed6f4e16026ffffffff01a0860100000000001976a9146a264665df75f824139904bf74203687c91b729f88ac00000000"
}
