{
    "txid": "1d3aa530fe872942726cfb3cf4e3fab6efb0e6d20bea0e4bfb2f938b962bcb91",
    "version": 2,
    "type": 0,
    "size": 201,
    "locktime": 0,
    "vin": [
        {
            "txid": "5897de6bd6027a475eadd57019d4e6872c396d0716c4875a5f1a6fcfdf385c1f",
            "vout": 0,
            "scriptSig": {
                "asm": "",
                "hex": ""
            },
            "sequence": 4294967295
        },
        {
            "txid": "bf829c6bcf84579331337659d31f89dfd138f7f7785802d5501c92333145ca7c",
            "vout": 18,
            "scriptSig": {
                "asm": "",
                "hex": ""
            },
            "sequence": 4294967295
        },
        {
            "txid": "22a6f904655d53ae2ff70e701a0bbd90aa3975c0f40bfc6cc996a9049e31cdfc",
            "vout": 1,
            "scriptSig": {
                "asm": "",
                "hex": ""
            },
            "sequence": 4294967295
        }
    ],
    "vout": [
        {
            "value": 0.18000000,
            "valueSat": 18000000,
            "n": 0,
            "scriptPubKey": {
                "asm": "OP_DUP OP_HASH160 9fab4879fc8317e383431a47cfee3d2c5fb03e31 OP_EQUALVERIFY OP_CHECKSIG",
                "hex": "76a9149fab4879fc8317e383431a47cfee3d2c5fb03e3188ac",
                "reqSigs": 1,
                "type": "pubkeyhash",
                "addresses": [
                    "GYQB3b2EhTHQcPT4SmnFmE8Jmc1a7uTNg1"
                ]
            }
        },
        {
            "value": 4.00000000,
            "valueSat": 400000000,
            "n": 1,
            "scriptPubKey": {
                "asm": "OP_DUP OP_HASH160 50dad4192ab5c07e8f92742f9b3240cf91eb0deb OP_EQUALVERIFY OP_CHECKSIG",
                "hex": "76a91450dad4192ab5c07e8f92742f9b3240cf91eb0deb88ac",
                "reqSigs": 1,
                "type": "pubkeyhash",
                "addresses": [
                    "GRDScwm14buqH1Wv1K6SMwNKGUHa4Jt2nb"
                ]
            }
        }
    ],
    "hex": "02000000031f5c38dfcf6f1a5f5a87c416076d392c87e6d41970d5ad5e477a02d66bde97580000000000ffffffff7cca453133921c50d5025878f7f738d1df891fd359763331935784cf6b9c82bf1200000000fffffffffccd319e04a996c96cfc0bf4c07539aa90bd0b1a700ef72fae535d6504f9a6220100000000ffffffff0280a81201000000001976a9149fab4879fc8317e383431a47cfee3d2c5fb03e3188ac0084d717000000001976a91450dad4192ab5c07e8f92742f9b3240cf91eb0deb88ac00000000"
}
